{
  "_format": "hh-sol-artifact-1",
  "contractName": "MetaStack",
  "sourceName": "contracts/MetaStack.sol",
  "abi": [
    {
      "inputs": [],
      "stateMutability": "nonpayable",
      "type": "constructor"
    },
    {
      "anonymous": false,
      "inputs": [
        {
          "indexed": false,
          "internalType": "address",
          "name": "_from",
          "type": "address"
        },
        {
          "indexed": false,
          "internalType": "address",
          "name": "_to",
          "type": "address"
        },
        {
          "indexed": false,
          "internalType": "uint256",
          "name": "_amount",
          "type": "uint256"
        }
      ],
      "name": "EthersSent",
      "type": "event"
    },
    {
      "anonymous": false,
      "inputs": [
        {
          "indexed": false,
          "internalType": "address",
          "name": "_from",
          "type": "address"
        },
        {
          "indexed": false,
          "internalType": "address",
          "name": "_to",
          "type": "address"
        },
        {
          "indexed": false,
          "internalType": "uint256",
          "name": "_amount",
          "type": "uint256"
        }
      ],
      "name": "TokensSent",
      "type": "event"
    },
    {
      "inputs": [],
      "name": "listingFee",
      "outputs": [
        {
          "internalType": "uint256",
          "name": "",
          "type": "uint256"
        }
      ],
      "stateMutability": "view",
      "type": "function"
    },
    {
      "inputs": [
        {
          "internalType": "address",
          "name": "_to",
          "type": "address"
        }
      ],
      "name": "sendEth",
      "outputs": [],
      "stateMutability": "payable",
      "type": "function"
    },
    {
      "inputs": [
        {
          "internalType": "address",
          "name": "_to",
          "type": "address"
        },
        {
          "internalType": "address",
          "name": "_contractAddress",
          "type": "address"
        },
        {
          "internalType": "uint256",
          "name": "_amount",
          "type": "uint256"
        }
      ],
      "name": "sendToken",
      "outputs": [],
      "stateMutability": "nonpayable",
      "type": "function"
    }
  ],
  "bytecode": "0x608060405234801561001057600080fd5b5067016345785d8a00006000819055506107b08061002f6000396000f3fe6080604052600436106100345760003560e01c80632fdcfbd2146100395780636a1b7ecc1461006257806376a54c601461008d575b600080fd5b34801561004557600080fd5b50610060600480360381019061005b91906104b0565b6100a9565b005b34801561006e57600080fd5b5061007761029b565b6040516100849190610646565b60405180910390f35b6100a760048036038101906100a29190610487565b6102a1565b005b600081116100ec576040517f08c379a00000000000000000000000000000000000000000000000000000000081526004016100e390610606565b60405180910390fd5b8273ffffffffffffffffffffffffffffffffffffffff163373ffffffffffffffffffffffffffffffffffffffff16141561015b576040517f08c379a000000000000000000000000000000000000000000000000000000000815260040161015290610626565b60405180910390fd5b600073ffffffffffffffffffffffffffffffffffffffff163373ffffffffffffffffffffffffffffffffffffffff1614156101cb576040517f08c379a00000000000000000000000000000000000000000000000000000000081526004016101c2906105e6565b60405180910390fd5b8173ffffffffffffffffffffffffffffffffffffffff166323b872dd3385846040518463ffffffff1660e01b8152600401610208939291906105af565b602060405180830381600087803b15801561022257600080fd5b505af1158015610236573d6000803e3d6000fd5b505050506040513d601f19601f8201168201806040525081019061025a91906104ff565b507fe607861baff3d292b19188affe88c1a72bdcb69d3015f18bb2cd0bf5349cc3e133848360405161028e939291906105af565b60405180910390a1505050565b60005481565b600034116102e4576040517f08c379a00000000000000000000000000000000000000000000000000000000081526004016102db90610606565b60405180910390fd5b8073ffffffffffffffffffffffffffffffffffffffff163373ffffffffffffffffffffffffffffffffffffffff161415610353576040517f08c379a000000000000000000000000000000000000000000000000000000000815260040161034a90610626565b60405180910390fd5b600073ffffffffffffffffffffffffffffffffffffffff163373ffffffffffffffffffffffffffffffffffffffff1614156103c3576040517f08c379a00000000000000000000000000000000000000000000000000000000081526004016103ba906105e6565b60405180910390fd5b8073ffffffffffffffffffffffffffffffffffffffff166108fc349081150290604051600060405180830381858888f19350505050158015610409573d6000803e3d6000fd5b507f256ab9f3b627ce148f1203603395f90b63403879bd881415e447d8d391f9ad4f33823460405161043d939291906105af565b60405180910390a150565b60008135905061045781610735565b92915050565b60008151905061046c8161074c565b92915050565b60008135905061048181610763565b92915050565b60006020828403121561049957600080fd5b60006104a784828501610448565b91505092915050565b6000806000606084860312156104c557600080fd5b60006104d386828701610448565b93505060206104e486828701610448565b92505060406104f586828701610472565b9150509250925092565b60006020828403121561051157600080fd5b600061051f8482850161045d565b91505092915050565b61053181610672565b82525050565b6000610544601f83610661565b915061054f826106ba565b602082019050919050565b6000610567601d83610661565b9150610572826106e3565b602082019050919050565b600061058a601783610661565b91506105958261070c565b602082019050919050565b6105a9816106b0565b82525050565b60006060820190506105c46000830186610528565b6105d16020830185610528565b6105de60408301846105a0565b949350505050565b600060208201905081810360008301526105ff81610537565b9050919050565b6000602082019050818103600083015261061f8161055a565b9050919050565b6000602082019050818103600083015261063f8161057d565b9050919050565b600060208201905061065b60008301846105a0565b92915050565b600082825260208201905092915050565b600061067d82610690565b9050919050565b60008115159050919050565b600073ffffffffffffffffffffffffffffffffffffffff82169050919050565b6000819050919050565b7f43616e6e6f742073656e6420746f20746865206e756c6c206164647265737300600082015250565b7f416d6f756e74206d7573742062652067726561746572207468616e2030000000600082015250565b7f43616e6e6f742073656e6420746f20796f757273656c66000000000000000000600082015250565b61073e81610672565b811461074957600080fd5b50565b61075581610684565b811461076057600080fd5b50565b61076c816106b0565b811461077757600080fd5b5056fea2646970667358221220cbada0032126d3ab5adb6b646d1789c6d20c40a32778b4a515ffacb03b397f4664736f6c63430008040033",
  "linkReferences": {},
  "deployedLinkReferences": {}
}